:020000040000FA
:100000000C947B000C94A3000C94A3000C94A3000C
:100010000C94A3000C94A3000C94A3000C94A300D4
:100020000C94A3000C94A3000C94A3000C943E0A1F
:100030000C94A3000C94A3000C94A3000C94A300B4
:100040000C949C090C94A3000C940C0A0C94E609E3
:100050000C94A3000C94A3000C94A3000C94A30094
:100060000C94A3000C94A3004E414E494E495459A0
:10007000494E46CDCCCC3D0AD7233C17B7D1387773
:10008000CC2B329595E6241FB14F0A000020410089
:1000900000C84200401C4620BCBE4CCA1B0E5AAED3
:1000A000C59D740000000800020100000304070061
:1000B0000000000000000000000000250028002BC8
:1000C0000000000000240027002A000404040404A7
:1000D00004040402020202020203030303030301F5
:1000E00002040810204080010204081020010204CC
:1000F00008102000FA0A11241FBECFEFD8E0DEBF9F
:10010000CDBF11E0A0E0B1E0EEE8F3E202C005905F
:100110000D92A03EB107D9F722E0A0EEB1E001C0F8
:100120001D92AF3DB207E1F710E0CBE7D0E004C08D
:100130002197FE010E94B411CA37D107C9F70E9466
:10014000DF0B0C94C5110C94000090E0FC01E1520F
:10015000FF4F249185539F4FFC018491882399F090
:1001600090E0880F991FFC01EF53FF4FA591B491C8
:10017000FC01E954FF4F859194918FB7F894EC916D
:10018000E22BEC938FBF08958F929F92AF92BF9214
:10019000FF920F931F93CF93DF93F090DA022BE03F
:1001A0002F1508F44CC02091DC0208E512E0021B78
:1001B000110927FD1395000F111F000F111F20912A
:1001C000DB02C8E8D0E0C21BD10927FDD395CC0FD4
:1001D000DD1FCC0FDD1F4E010D2E000CAA08BB0841
:1001E0009801012E000C440B550B281939094A09B6
:1001F0005B09DC010E94191024EB30E040E050E084
:100200000E94EF0F820E931EA41EB51E8C169D0633
:100210002CF0E801801691060CF4E4012297CC0F33
:10022000DD1F2FB7F8948F2D90E0FC01EE0FFF1F1C
:10023000E80FF91FEB56FD4FD283C1832FBFDF912B
:10024000CF911F910F91FF90BF90AF909F908F9093
:10025000089590E0FC01ED55FF4F2491FC01E1521F
:10026000FF4F3491FC01E553FF4FE491EE23C9F0B9
:10027000222339F0233001F1A8F4213019F1223082
:1002800029F1F0E0EE0FFF1FE954FF4FA591B49163
:100290008FB7F894EC91611126C030953E233C93C2
:1002A0008FBF08952730A9F02830C9F0243049F7CE
:1002B000809180008F7D03C0809180008F77809334
:1002C0008000DFCF84B58F7784BDDBCF84B58F7D91
:1002D000FBCF8091B0008F778093B000D2CF809118
:1002E000B0008F7DF9CF3E2BDACFCF93DF9360E064
:1002F0008CE00E94290160E088E00E942901C7E0AB
:10030000D0E060E084E00E9429018091930290E0B7
:100310000C2E02C0959587950A94E2F761E080FF64
:1003200060E088E00E94290161E084E00E942901E8
:10033000219738F761E08CE0DF91CF910C9429018F
:100340008CE00E94A50087E00E94A50088E00E9442
:10035000A50084E00E94A500109293020E947501FE
:1003600060E087E00C9429013FB7F8948091F20196
:100370009091F301A091F401B091F50126B5A89BED
:1003800005C02F3F19F00196A11DB11D3FBFBA2F27
:10039000A92F982F8827BC01CD01620F711D811DE7
:1003A000911D42E0660F771F881F991F4A95D1F76C
:1003B00008958F929F92AF92BF92CF92DF92EF9269
:1003C000FF926B017C010E94B4014B015C01C114DE
:1003D000D104E104F104B9F00E94B401681979096B
:1003E0008A099B09683E73408105910580F321E0ED
:1003F000C21AD108E108F10888EE880E83E0981E41
:10040000A11CB11CE4CFFF90EF90DF90CF90BF9084
:10041000AF909F908F900895AF92BF92CF92DF924E
:10042000EF92FF920F931F93CF93DF936C017B01A9
:100430008B01040F151FEB015E01AE18BF08C0173A
:10044000D10759F06991D601ED91FC910190F081AD
:10045000E02DC6010995892B79F7C501DF91CF9170
:100460001F910F91FF90EF90DF90CF90BF90AF90D2
:100470000895FC01538D448D252F30E0842F90E0AA
:10048000821B930B541710F0CF960895019708958F
:10049000FC01918D828D981761F0A28DAE0FBF2F58
:1004A000B11D5D968C91928D9F5F9F73928F90E0AE
:1004B00008958FEF9FEF0895FC01918D828D98171D
:1004C00031F0828DE80FF11D858D90E008958FEF5A
:1004D0009FEF0895FC01918D228D892F90E0805C23
:1004E0009F4F821B91098F739927089586EF91E0A2
:1004F0000E946A0221E0892B09F420E0822F0895EE
:1005000080E090E0892B29F00E94760281110C9402
:1005100000000895FC01A48DA80FB92FB11DA35AA6
:10052000BF4F2C91848D90E001968F739927848F13
:10053000A689B7892C93A089B1898C918370806436
:100540008C93938D848D981306C00288F389E02DD7
:1005500080818F7D80830895EF92FF920F931F9388
:10056000CF93DF93EC0181E0888F9B8D8C8D981366
:100570001AC0E889F989808185FF15C09FB7F89472
:10058000EE89FF896083E889F989808183708064BE
:1005900080839FBF81E090E0DF91CF911F910F9109
:1005A000FF90EF900895F62E0B8D10E00F5F1F4F18
:1005B0000F731127E02E8C8D8E110CC00FB607FC27
:1005C000FACFE889F989808185FFF5CFCE010E94B5
:1005D0008A02F1CFEB8DEC0FFD2FF11DE35AFF4F97
:1005E000F0829FB7F8940B8FEA89FB898081806243
:1005F000CFCFCF93DF93EC01888D8823B9F0AA8900
:10060000BB89E889F9898C9185FD03C0808186FDCD
:100610000DC00FB607FCF7CF8C9185FFF2CF80811C
:1006200085FFEDCFCE010E948A02E9CFDF91CF9105
:100630000895FF920F931F93CF93DF93DC011296DF
:10064000FC90129781E0F816A9F0C2E080E0FC125D
:1006500063C070E430E851E020E21B969C911B9748
:10066000413009F05FC093FF61C0613009F085C07F
:10067000985F06C070E138E052E024E0EECF905180
:100680001B969C931B979FEF8FEF1B966C911B976C
:100690006F731B966C931B97D1E0FD128DC09093E6
:1006A000B3008093B400622F652BC32FC72B962F06
:1006B0009C2B9095809193028923809393021B96A3
:1006C000EC911B97443009F07DC0E03118F4682BA1
:1006D0006093930280EF8E0F803138F4852F832B47
:1006E00090919302892B8093930280EE8E0F80313C
:1006F00028F4809193028C2B80939302E053E03195
:1007000038F4822F872B90919302892B8093930248
:10071000ED010E9475018B85DF91CF911F910F91A3
:10072000FF900895423039F493FF9FCF613009F074
:10073000A6CF905FA5CF433009F497CF443009F09E
:10074000A2CF6130E1F49F5F1B969C931B971B9691
:100750008C911B978F731B968C931B97082F10E01F
:10076000F801E050FF4F803160F480E191E0801BA0
:10077000910BEC019881808188CF985081CF915066
:10078000E3CF90EF980F903138F470979081E0E2CA
:10079000F1E0E01BF10BEFCF8052803140F480E3B9
:1007A00091E0801B910BEC019881B097E4CFF0971A
:1007B0009081E0E4F1E0EDCF62E0F61274CF97BDF6
:1007C00088BD71CFF0E093E0F595E7959A95E1F754
:1007D000E830F10508F09CCFE051FC4F0C94B411C7
:1007E0000404F803FA03FC03FD03FF0301040304FC
:1007F000862B8CCF852B8ACF352B832B87CF8C2BC9
:1008000085CF872B83CF272B822B80CFFC010190B4
:100810000020E9F73197AF01481B590BBC0186EF67
:1008200091E00C940C028F929F92AF92BF920F9323
:100830001F93CF93DF93CDB7DEB7A1970FB6F89490
:10084000DEBF0FBECDBF19A2423008F44AE08E01D0
:100850000F5D1F4F842E912CB12CA12CA50194016A
:100860000E945810E62FB901CA01EA30F4F4E05DA5
:10087000D801EE938D01232B242B252B79F790E0C3
:1008800080E0109719F0CD010E940604A1960FB6E2
:10089000F894DEBF0FBECDBFDF91CF911F910F91B6
:1008A000BF90AF909F908F900895E95CE1CFCF9279
:1008B000DF92EF92FF92CF93DF936B017C016DE2A9
:1008C00086EF91E00E94AC02EC0166277727CB010E
:1008D0006C197D098E099F094AE00E9413048C0F50
:1008E0009D1FDF91CF91FF90EF90DF90CF90089503
:1008F000CF93DF930E940604EC0183E291E00E9413
:1009000006048C0F9D1FDF91CF91089582E390E044
:100910000E94C40062E370E080E090E00E94D90190
:1009200061E08FE00E94290160E080E10C942901E0
:100930008AE590E00E94C40062E370E080E090E00D
:100940000E94D90160E08FE00E94290161E080E10E
:100950000C9429014F925F926F927F928F929F9297
:10096000AF92BF92CF92DF92EF92FF920F931F93BD
:10097000CF936B017C01742EAC019B010E94A311EB
:10098000882399F086E291E0CF911F910F91FF901B
:10099000EF90DF90CF90BF90AF909F908F907F901F
:1009A0006F905F904F900C94060446015701E894B5
:1009B000B7F82FEF3FEF4FE75FE7C501B4010E94A3
:1009C000A31181110DC02FEF3FEF4FE75FE7C50186
:1009D000B4010E94C80E18161CF48AE291E0D4CF2C
:1009E0002FEF3FEF4FE75FE4C701B6010E949E1172
:1009F00018161CF48EE291E0C7CF2FEF3FEF4FE7C0
:100A00005FECC701B6010E94C80E87FDF3CF20E05E
:100A100030E0A901C701B6010E94C80E10E000E055
:100A200087FF0AC06DE286EF91E00E94AC028C0164
:100A3000F7FAF094F7F8F094C0E060E070E080E03E
:100A40009FE37C1641F020E030E040E251E40E9458
:100A5000F610CF5FF6CFA70196010E948A102B01F6
:100A60003C010E946F114B015C014AE00E9413049B
:100A70007C01E00EF11ECC23C1F1C501B4010E943E
:100A8000CD0E9B01AC01C301B2010E9489104B0144
:100A90005C016EE286EF91E00E94AC02E80EF91E66
:100AA000C15018F120E030E040E251E4C501B4014A
:100AB0000E942E0F2B013C010E946F114B01B12CA3
:100AC000A12C4AE0C501B4010E941304E80EF91EEE
:100AD000C501B4010E94CD0E9B01AC01C301B2015E
:100AE0000E9489104B015C01DBCFC701CF911F91A0
:100AF0000F91FF90EF90DF90CF90BF90AF909F90BD
:100B00008F907F906F905F904F90089542E00C948B
:100B1000AA040C940604CF93DF93CDB7DEB7C65575
:100B2000D2400FB6F894DEBF0FBECDBF64E670E0D2
:100B300080E090E00E94D90100E010E0312C212CEF
:100B400002C0102F01E086EF91E00E946A021816A1
:100B50001906CCF786EF91E00E9448028A3019F01E
:100B60008D3009F0B9C32114310409F4B0C3E1E0B8
:100B7000F0E0EC0FFD1FE20DF31D108290E080E02D
:100B80008C010F5F1F4FE1E0F0E0EC0FFD1FE80F5D
:100B9000F91F2081273481F034F4243409F009C38B
:100BA0000E94860406C32D3409F409C3253509F0D3
:100BB00000C30E949804FDC29C012E5F3F4FC55B9D
:100BC000DD4F39832883CB54D240E1E0F0E0EC0FD5
:100BD000FD1FE00FF11F8081CF5FDD4F8883C15083
:100BE000D240CE5FDD4F1882C250D240CE018F5F1F
:100BF0009D4F0E94310D029708F0D5C268E570E064
:100C0000EE24E394F12CEC0EFD1EC55BDD4F8881D4
:100C10009981CB54D240E80EF91EC7010E94BA1147
:100C20008C0169E570E0C7010E94BA11009709F0D4
:100C3000AAC1C80101960E942D0D162F072FCB5B6C
:100C4000DD4F8883C554D240CA5BDD4F9883C654BC
:100C5000D2409091E401C95BDD4F9883C754D240E4
:100C6000A091E501C85BDD4FA883C854D240B09184
:100C7000E601C75BDD4FB883C954D240E091E7017C
:100C8000C65BDD4FE883CA54D24020E030E040E24A
:100C900052E4612F702FCB5BDD4F8881C554D24069
:100CA000CA5BDD4F9881C654D2400E949E1187FFD7
:100CB000BEC120E030E0A901612F702FCB5BDD4F7A
:100CC0008881C554D240CA5BDD4F9881C654D2405A
:100CD0000E94C80E18160CF0B1C1812E902ECB5B6D
:100CE000DD4FA880C554D240CA5BDD4FB880C654E2
:100CF000D24020E030E040E252E4C95BDD4F688141
:100D0000C754D240C85BDD4F7881C854D240C75B1E
:100D1000DD4F8881C954D240C65BDD4F9881CA54EB
:100D2000D2400E949E1187FF8EC120E030E0A901D1
:100D3000C95BDD4F6881C754D240C85BDD4F788105
:100D4000C854D240C75BDD4F8881C954D240C65BCE
:100D5000DD4F9881CA54D2400E94C80E18160CF07C
:100D600079C1C95BDD4FC880C754D240C85BDD4F35
:100D7000D880C854D240C75BDD4FE880C954D24008
:100D8000C65BDD4FF880CA54D24020E030E048EC2A
:100D900052E4B401C5010E942E0F0E946811072E73
:100DA000000C880B990B0E94CF0EC35BDD4F68834C
:100DB00079838A839B83CD54D24020E030E048EC95
:100DC00052E4B601C7010E942E0F0E946811072E3F
:100DD000000C880B990B0E94CF0ECF5ADD4F688311
:100DE00079838A839B83C155D2404090BE02509044
:100DF000BF026090C0027090C1028090BA029090D1
:100E0000BB02A090BC02B090BD02A3019201C35BE3
:100E1000DD4F688179818A819B81CD54D2400E94C7
:100E200089106B017C0120E030E0A9010E949E1135
:100E300018160CF014C1C701B6010E946811CF5BEF
:100E4000DD4F688379838A839B83C154D240A50197
:100E50009401CF5ADD4F688179818A819B81C15588
:100E6000D2400E9489106B017C0120E030E0A90192
:100E70000E949E1118160CF0F6C0C701B6010E9420
:100E800068116B017C01A3019201C35BDD4F688196
:100E900079818A819B81CD54D2400E949E1118167F
:100EA0000CF0E5C031E0CB5ADD4F3883C555D24058
:100EB000A5019401CF5ADD4F688179818A819B8198
:100EC000C155D2400E949E1118160CF0D7C091E077
:100ED000CA5ADD4F9883C655D240CF5BDD4F88811B
:100EE0009981AA81BB81C154D240812C912C54019B
:100EF000412C512C3201C816D906EA06FB060CF02B
:100F0000C4C0CF5BDD4F88819981AA81BB81C15468
:100F1000D240481659066A067B060CF0EFC044E042
:100F2000CB5ADD4F6881C555D24082EC92E00E94D9
:100F300019038C0C9D1CAE1CBF1CCF5BDD4F888140
:100F40009981AA81BB81C154D24088169906AA060C
:100F5000BB0674F0881A990AAA0ABB0A44E0CA5A66
:100F6000DD4F6881C655D2408EEC92E00E94190395
:100F700060E070E0CB010E94D9019FEF491A590A45
:100F8000690A790ABECF01960115110549F50E943B
:100F90002D0DC95BDD4F6883C754D240C85BDD4F60
:100FA0007883C854D240C75BDD4F8883C954D24090
:100FB000C65BDD4F9883CA54D2401091E001009186
:100FC000E101F091E201CB5BDD4FF883C554D240E3
:100FD0002091E301CA5BDD4F2883C654D24055CE31
:100FE0000E942D0DC95BDD4F6883C754D240C85B9A
:100FF000DD4F7883C854D240C75BDD4F8883C95426
:10100000D240C65BDD4F9883CA54D240C8010196D6
:101010000E942D0D162F072FCB5BDD4F8883C55403
:10102000D240CA5BDD4F9883C654D2402ECE812C6D
:10103000912C20E2A22E32E4B32E5BCE812C912C97
:10104000A12CB12C56CEC12CD12C80E2E82E92E4FA
:10105000F92E9BCEC12CD12CE12CF12C96CEC701C0
:10106000B6019058EACEC701B601905808CF8FEF6D
:10107000CB5ADD4F8883C555D2401ACFAFEFCA5A3D
:10108000DD4FA883C655D24028CF4C145D046E04B2
:101090007F04A4F544E0CA5ADD4F6881C655D240AA
:1010A0008EEC92E00E941903CF5BDD4F888199811D
:1010B000AA81BB81C154D240880E991EAA1EBB1EB4
:1010C0008C149D04AE04BF0474F08C189D08AE0807
:1010D000BF0844E0CB5ADD4F6881C555D24082EC51
:1010E00092E00E94190360E070E0CB010E94D901F8
:1010F0009FEF491A590A690A790AC7CF60E070E080
:10110000CB010E94D901C35BDD4F88819981AA81FF
:10111000BB81CD54D2408093BE029093BF02A09376
:10112000C002B093C102CF5ADD4F88819981AA8154
:10113000BB81C155D2408093BA029093BB02A09369
:10114000BC02B093BD02812F902FCB5BDD4FA881F5
:10115000C554D240CA5BDD4FB881C654D24080939B
:10116000E0019093E101A093E201B093E301C95B38
:10117000DD4F8881C754D240C85BDD4F9881C85489
:10118000D240C75BDD4FA881C954D240C65BDD4F5A
:10119000B881CA54D2408093E4019093E501A093B2
:1011A000E601B093E701C55BDD4F08811981CB549F
:1011B000D240021513050CF08AC0C801E1CCE1E071
:1011C000F0E0EC0FFD1FE00FF11F2081CF5FDD4F3E
:1011D0002883C150D240E3E0F0E0EC0FFD1FE80FA0
:1011E000F91F2081CE5FDD4F2883C250D2408C0191
:1011F0000C5F1F4FA4E0B0E0AC0FBD1F8A0F9B1F18
:10120000FC018081CD5FDD4F8883C350D240CC5F2D
:10121000DD4F1882C450D240CE018F5F9D4F0E9497
:10122000310D8237910539F18C32914009F045C07A
:1012300063E570E081E090E08C0F9D1F800F911FAF
:101240000E94BA1101960E942D0D6B017C0120E0D5
:1012500030E040EF51E40E94C80E882309F4A0CC8E
:1012600020E030E048E452E4C701B6010E94C80E15
:1012700081119FCF9ECC82E391E00E94890560910D
:10128000E0017091E1018091E2019091E3010E94FF
:1012900086058BE491E00E9489056091E4017091DC
:1012A000E5018091E6019091E70142E00E94AA04E5
:1012B00083E291E00E9406047CCF85E591E00E94E4
:1012C0008905CE018F5F9D4F0E94780472CF80E721
:1012D00091E00E94780430CC111102C0002329F063
:1012E000893209F030CC10E02ECC8132E4F38F3219
:1012F000D1F311E0883209F426CC8B3309F421CCE8
:101300002FEF221621E032062CF083E791E00E94B5
:101310007804E9CF91012F5F3F4F9FE9980FE1E0FB
:10132000F0E0EC0FFD1FE20DF31D9A3108F480523E
:10133000808310E0190107CC1F920F920FB60F9215
:1013400011242F933F938F939F93AF93BF938091DB
:10135000EE019091EF01A091F001B091F101309177
:10136000ED0123E0230F2D3758F50196A11DB11D86
:101370002093ED018093EE019093EF01A093F00193
:10138000B093F1018091F2019091F301A091F401E9
:10139000B091F5010196A11DB11D8093F2019093CA
:1013A000F301A093F401B093F501BF91AF919F9128
:1013B0008F913F912F910F900FBE0F901F90189516
:1013C00026E8230F0296A11DB11DD2CF1F920F92C6
:1013D0000FB60F9211242F933F934F935F936F9308
:1013E0007F938F939F93AF93BF93EF93FF9386EF7A
:1013F00091E00E948A02FF91EF91BF91AF919F917E
:101400008F917F916F915F914F913F912F910F90AD
:101410000FBE0F901F9018951F920F920FB60F924C
:1014200011242F938F939F93EF93FF93E0910602E4
:10143000F09107028081E0910C02F0910D0282FD93
:101440001BC0908180910F028F5F8F7320911002DB
:10145000821741F0E0910F02F0E0EA50FE4F958FC5
:1014600080930F02FF91EF919F918F912F910F9099
:101470000FBE0F901F9018958081F4CF1F920F928E
:101480000FB60F9211242F933F934F935F936F9357
:101490007F938F939F93AF93BF93CF93DF93EF93FC
:1014A000FF938091EC01C091B902D0E087FF24C086
:1014B00010928500109284008091EC018F5F8093E0
:1014C000EC018091EC01082E000C990B8C179D0704
:1014D00024F48091EC018C30C4F1809184009091CF
:1014E0008500049680349C4908F47AC08091840079
:1014F00090918500049676C08091EC01082E000C36
:10150000990B8C179D07C4F6E091EC018E2FEE0F1E
:10151000990BFC01EE0FFF1FE80FF91FEB56FD4F73
:10152000808186FFC9CFE091EC018E2FEE0F990BE1
:10153000FC01EE0FFF1FE80FF91FEB56FD4F8081F6
:1015400060E08F730E942901B7CF20918400309111
:101550008500E091EC018E2FEE0F990BFC01EE0F50
:10156000FF1FE80FF91FEB56FD4F81819281820F1B
:10157000931F9093890080938800E091EC018E2F57
:10158000EE0F990BFC01EE0FFF1FE80FF91FEB5652
:10159000FD4F808186FF11C0E091EC018E2FEE0F90
:1015A000990BFC01EE0FFF1FE80FF91FEB56FD4FE3
:1015B000808161E08F730E942901FF91EF91DF919B
:1015C000CF91BF91AF919F918F917F916F915F91DB
:1015D0004F913F912F910F900FBE0F901F90189534
:1015E00080E49CE990938900809388008FEF80933A
:1015F000EC01E3CF0F931F93CF931092F901109258
:10160000F80188EE93E0A0E0B0E08093FA019093B7
:10161000FB01A093FC01B093FD0185E191E0909363
:10162000F7018093F60185EC90E09093030280939C
:10163000020284EC90E0909305028093040280EC17
:1016400090E0909307028093060281EC90E09093E3
:1016500009028093080282EC90E090930B02809341
:101660000A0286EC90E090930D0280930C02109297
:101670000F02109210021092110210921202109298
:1016800094028091B9028C3008F095C091E0980FD7
:101690009093B9028093DA0290E0FC01EE0FFF1FF5
:1016A000E80FF91FEB56FD4F88EB9BE09283818397
:1016B0000E94A00100E310E01093CF020093CE023D
:1016C000C1E0C093D0021092D90280919302817E32
:1016D000809393020E9475018BE00E94A50083E035
:1016E0000E94A50061E08BE00E94290161E083E097
:1016F0000E9429018091B00083688093B000C0935C
:10170000B1001092B3008BE00E94A5008091B00060
:1017100083628093B000C093B1001092B40083E064
:101720000E94A500CFEFC093B300C093B4000E9405
:10173000A0011093C3020093C20282E08093C4020E
:101740001092CD02809193028E71809393020E9439
:10175000750185E00E94A50086E00E94A50061E079
:1017600085E00E94290161E086E00E94290184B59C
:10177000836884BD17BC86E00E94A50084B583629F
:1017800084BD18BC85E00E94A500C7BDC8BD1092ED
:10179000BE021092BF021092C0021092C1021092BB
:1017A000BA021092BB021092BC021092BD02CF91FD
:1017B0001F910F9108958FEF8093DA0279CF78947B
:1017C00084B5826084BD84B5816084BD85B5826046
:1017D00085BD85B5816085BD80916E0081608093F7
:1017E0006E00109281008091810082608093810060
:1017F0008091810081608093810080918000816070
:10180000809380008091B10084608093B1008091CA
:10181000B00081608093B00080917A0084608093F2
:101820007A0080917A00826080937A0080917A00B9
:10183000816080937A0080917A00806880937A003A
:101840001092C100E0910602F091070282E08083CD
:10185000E0910202F09103021082E0910402F09103
:1018600005028FEC808310920E02E0910A02F09143
:101870000B0286E08083E0910802F09109028081EA
:1018800080618083E0910802F09109028081886084
:101890008083E0910802F091090280818068808352
:1018A000E0910802F091090280818F7D8083809110
:1018B000DA028C3008F050C08AE00E94A5008091C6
:1018C000DA02282F30E0F901EE0FFF1FE20FF31FBD
:1018D000EB56FD4F9081907C9A6090831092DB02D2
:1018E0001092DC022CE0622F0E94A811829FB001AE
:1018F000112430E020E0AB01420F531FFA01EE0F3C
:10190000FF1FE40FF51FEB56FD4F908196FD16C0AB
:101910002F5F3F4F2C30310571F781110FC01092AE
:10192000800082E0809381001092850010928400F4
:10193000B19A80916F00826080936F00E091DA022B
:101940008E2F90E0FC01EE0FFF1FE80FF91FEB5602
:10195000FD4F8081806480838AE590E00E94C4000E
:1019600064E670E080E090E00E94D9012091C2021C
:101970003091C302A8E5B2E00E947A109B01AC014D
:10198000C12C87E8D82E83E9E82E83E0F82EC70122
:10199000B6010E9458102093C5023093C6024093AE
:1019A000C7025093C8021092C9021092CA02109244
:1019B000CB021092CC022091CE023091CF02A8E54A
:1019C000B2E00E947A109B01AC01C701B6010E94EF
:1019D00058102093D1023093D2024093D3025093F7
:1019E000D4021092D5021092D6021092D702109211
:1019F000D8028FE891E00E94780483EB91E00E9486
:101A0000890560E070E0CB010E94860584EC91E0DE
:101A10000E94890560E070E080E292E40E94860501
:101A200089EC91E00E9478048EEC91E00E94890597
:101A300060E070E0CB010E94860584EC91E00E949A
:101A4000890560E070E080E292E40E94860589ECFE
:101A500091E00E9478040E948B05662777270C94FA
:101A6000570DFC0188279927E89421912032E9F34A
:101A7000293010F02E30C8F32B3241F02D3239F4DA
:101A8000689404C00E944F0D820F911D2191205334
:101A90002A30C0F31EF4909581959F4F08957AE007
:101AA000979F902D879F802D910D11240895B0E070
:101AB000A0E0EDE5FDE00C9427105C017B016115D1
:101AC000710519F0DB018D939C9385010F5F1F4F0A
:101AD000F501D0818D2F90E00E94A70E6C01892B1B
:101AE000B9F5DD32B9F50F5F1F4FD5011196DC91C5
:101AF000C1E05801F1E0AF1AB10843E050E060E7FF
:101B000070E0C5010E94B00E892B69F5680182E082
:101B1000C80ED11C45E050E06BE670E0C6010E94A3
:101B2000B00E892B21F4680197E0C90ED11CE11495
:101B3000F10419F0D701CD92DC9260E070E080E80A
:101B40009FEFC111FFC060E070E080E89FE7FAC03E
:101B50005801BBCFDB3229F485010E5F1F4FF50121
:101B6000D181C0E0C6CF43E050E068E670E0C50137
:101B70000E94B00E892BE9F0F80110E000E020E0AF
:101B800030E0A9015F01B0ED8B2E8D0E89E0881544
:101B9000C8F19C2E689491F88C2F8870C2FF16C0F3
:101BA000811102C00F5F1F4F3196D501DC91C92D05
:101BB000E9CFE114F10429F00E5F1F4FF701118303
:101BC000008360E070E080EC9FE7BCC0882311F0E8
:101BD00001501109A5E0B0E00E940E109B01AC017C
:101BE000220F331F441F551F280D311D411D511D4C
:101BF000283999E93907490799E15907A8F2C660D8
:101C00009C2ED2CFAEEF8A1206C0C3FD3CC09C2EE4
:101C1000689493F8C9CFDF7DD534A9F580818D32E2
:101C200039F4C061DF011296818162E070E006C084
:101C3000DF018B32C1F3119661E070E080535D01EA
:101C4000A61AB70A8A30F8F4E0E8CE16ECE0DE0611
:101C50005CF4B601660F771F660F771FC60ED71E9E
:101C6000CC0CDD1CC80ED11C5D01FFEFAF1ABF0A02
:101C70008C9180538A30A8F1C4FF03C0D194C194E1
:101C8000D1080C0D1D1DC1FF09C0E114F10431F094
:101C900081E0A81AB108D701AD92BC92CA01B9017E
:101CA0000E94CD0EC370C33009F490584B015C0103
:101CB00020E030E0A9010E94C80E882309F440C04A
:101CC000CFE9D0E017FF05C0119501951109C7E8CC
:101CD000D0E06E01B8E1CB1AD10880E2E82EF12CF9
:101CE0000FC0D501B1CFFE01259135914591549199
:101CF0000E191F09C501B4010E942E0F4B015C0192
:101D0000D501C4010E151F0574F72497F594E794C7
:101D1000CC16DD06A9F78A2F880F8B2F881F8F3FDF
:101D200049F020E030E0A901C501B4010E94C80ECD
:101D3000811106C082E290E09093DE028093DD0282
:101D4000C501B401CDB7DEB7ECE00C94431091119E
:101D50000C949B0F803219F089508550C8F7089574
:101D6000FB01DC014150504088F08D9181341CF022
:101D70008B350CF4805E659161341CF06B350CF48E
:101D8000605E861B611171F3990B0895881BFCCF6F
:101D90000E940A0F08F481E00895E89409C097FBB7
:101DA0003EF490958095709561957F4F8F4F9F4F32
:101DB0009923A9F0F92F96E9BB279395F695879576
:101DC00077956795B795F111F8CFFAF4BB0F11F439
:101DD00060FF1BC06F5F7F4F8F4F9F4F16C08823E0
:101DE00011F096E911C0772321F09EE8872F762F16
:101DF00005C0662371F096E8862F70E060E02AF057
:101E00009A95660F771F881FDAF7880F9695879542
:101E100097F90895990F0008550FAA0BE0E8FEEF17
:101E200016161706E807F907C0F012161306E4079E
:101E3000F50798F0621B730B840B950B39F40A2697
:101E400061F0232B242B252B21F408950A2609F475
:101E5000A140A6958FEF811D811D08950E94410F1D
:101E60000C94B50F0E94A70F38F00E94AE0F20F01F
:101E7000952311F00C949E0F0C94A40F11240C9434
:101E8000E90F0E94C60F70F3959FC1F3950F50E0C4
:101E9000551F629FF001729FBB27F00DB11D639F1C
:101EA000AA27F00DB11DAA1F649F6627B00DA11DC2
:101EB000661F829F2227B00DA11D621F739FB00D68
:101EC000A11D621F839FA00D611D221F749F3327D8
:101ED000A00D611D231F849F600D211D822F762F71
:101EE0006A2F11249F5750409AF0F1F088234AF04E
:101EF000EE0FFF1FBB1F661F771F881F91505040BA
:101F0000A9F79E3F510580F00C949E0F0C94E90FA9
:101F10005F3FE4F3983ED4F3869577956795B79540
:101F2000F795E7959F5FC1F7FE2B880F911D96955A
:101F3000879597F9089599278827089597F99F67B6
:101F400080E870E060E008959FEF80EC0895002441
:101F50000A941616170618060906089500240A940E
:101F600012161306140605060895092E0394000C94
:101F700011F4882352F0BB0F40F4BF2B11F460FF23
:101F800004C06F5F7F4F8F4F9F4F089557FD90584C
:101F9000440F551F59F05F3F71F04795880F97FB2D
:101FA000991F61F09F3F79F08795089512161306E7
:101FB0001406551FF2CF4695F1DF08C01616170616
:101FC0001806991FF1CF869571056105089408954B
:101FD000E894BB2766277727CB0197F90895052E4C
:101FE00097FB1EF400940E94061057FD07D00E9434
:101FF000581007FC03D04EF40C94061050954095F1
:10200000309521953F4F4F4F5F4F089590958095A4
:10201000709561957F4F8F4F9F4F08950E947A1062
:10202000A59F900DB49F900DA49F800D911D11242C
:102030000895B7FF0C940E100E940E10821B930B94
:1020400008952F923F924F925F926F927F928F925C
:102050009F92AF92BF92CF92DF92EF92FF920F9337
:102060001F93CF93DF93CDB7DEB7CA1BDB0B0FB641
:10207000F894DEBF0FBECDBF09942A8839884888FE
:102080005F846E847D848C849B84AA84B984C88494
:10209000DF80EE80FD800C811B81AA81B981CE0F8B
:1020A000D11D0FB6F894DEBF0FBECDBFED01089570
:1020B000A1E21A2EAA1BBB1BFD010DC0AA1FBB1F4C
:1020C000EE1FFF1FA217B307E407F50720F0A21BBE
:1020D000B30BE40BF50B661F771F881F991F1A942B
:1020E00069F760957095809590959B01AC01BD0155
:1020F000CF010895A29FB001B39FC001A39F700DAF
:10210000811D1124911DB29F700D811D1124911DFF
:1021100008955058BB27AA270E94A1100C94B50F10
:102120000E94A70F38F00E94AE0F20F039F49F3FB5
:1021300019F426F40C94A40F0EF4E095E7FB0C942C
:102140009E0FE92F0E94C60F58F3BA176207730754
:102150008407950720F079F4A6F50C94E80F0EF4A7
:10216000E0950B2EBA2FA02D0B01B90190010C01A7
:10217000CA01A0011124FF27591B99F0593F50F4BF
:10218000503E68F11A16F040A22F232F342F442717
:10219000585FF3CF469537952795A795F04053950F
:1021A000C9F77EF41F16BA0B620B730B840BBAF0DF
:1021B0009150A1F0FF0FBB1F661F771F881FC2F74A
:1021C0000EC0BA0F621F731F841F48F4879577955E
:1021D0006795B795F7959E3F08F0B0CF9395880F18
:1021E00008F09927EE0F9795879508950E940A1198
:1021F0000C94B50F0E94AE0F58F00E94A70F40F04C
:1022000029F45F3F29F00C949E0F51110C94E90FB3
:102210000C94A40F0E94C60F68F39923B1F35523C1
:1022200091F3951B550BBB27AA27621773078407E9
:1022300038F09F5F5F4F220F331F441FAA1FA9F37F
:1022400035D00E2E3AF0E0E832D091505040E6956D
:10225000001CCAF72BD0FE2F29D0660F771F881FCE
:10226000BB1F261737074807AB07B0E809F0BB0BC1
:10227000802DBF01FF2793585F4F3AF09E3F5105D5
:1022800078F00C949E0F0C94E90F5F3FE4F3983EB6
:10229000D4F3869577956795B795F7959F5FC9F7BE
:1022A000880F911D9695879597F90895E1E0660F3F
:1022B000771F881FBB1F621773078407BA0720F0B8
:1022C000621B730B840BBA0BEE1F88F7E095089521
:1022D0000E946F116894B1110C94E90F08950E9447
:1022E000CE0F88F09F5798F0B92F9927B751B0F0CB
:1022F000E1F0660F771F881F991F1AF0BA95C9F78A
:1023000014C0B13091F00E94E80FB1E008950C9430
:10231000E80F672F782F8827B85F39F0B93FCCF3E3
:10232000869577956795B395D9F73EF49095809506
:10233000709561957F4F8F4F9F4F08950E940A0FB0
:1023400008F48FEF08950E940A0F880B990B0895E7
:10235000991B79E004C0991F961708F0961B881FF7
:102360007A95C9F780950895EE0FFF1F0590F491B7
:10237000E02D0994FC018191861721F08823D9F77B
:10238000992708953197CF010895F894FFCF001948
:10239000324A62788DA2B4C5D4E1ECF4FAFDFF00B4
:1023A000000000AC020C023902F9026A0248025C29
:1023B000020D0A006E616E00696E66006F7666003F
:1023C0004162736F6C75746520706F736974696FA7
:1023D0006E203A2058203D200020202D202059201A
:1023E0003D2000436F6D6D616E64206E6F742072CE
:1023F00065636F676E697A6564203A204D006F6B84
:10240000004552524F52202D206C696E6542756610
:10241000666572206F766572666C6F77004D696EC7
:102420006920434E4320506C6F7474657220616C58
:1024300069766520616E64206B69636B696E6721E4
:1024400000582072616E67652069732066726F6D37
:10245000200020746F2000206D6D2E0059207261C5
:0E2460006E67652069732066726F6D20000044
:107E0000112484B714BE81FFF0D085E080938100F7
:107E100082E08093C00088E18093C10086E0809377
:107E2000C20080E18093C4008EE0C9D0259A86E02C
:107E300020E33CEF91E0309385002093840096BBD3
:107E4000B09BFECF1D9AA8958150A9F7CC24DD24C4
:107E500088248394B5E0AB2EA1E19A2EF3E0BF2EE7
:107E6000A2D0813461F49FD0082FAFD0023811F036
:107E7000013811F484E001C083E08DD089C08234E0
:107E800011F484E103C0853419F485E0A6D080C0E4
:107E9000853579F488D0E82EFF2485D0082F10E0AE
:107EA000102F00270E291F29000F111F8ED06801E7
:107EB0006FC0863521F484E090D080E0DECF843638
:107EC00009F040C070D06FD0082F6DD080E0C81688
:107ED00080E7D80618F4F601B7BEE895C0E0D1E017
:107EE00062D089930C17E1F7F0E0CF16F0E7DF06D8
:107EF00018F0F601B7BEE89568D007B600FCFDCFD4
:107F0000A601A0E0B1E02C9130E011968C91119780
:107F100090E0982F8827822B932B1296FA010C0160
:107F200087BEE89511244E5F5F4FF1E0A038BF0790
:107F300051F7F601A7BEE89507B600FCFDCF97BE46
:107F4000E89526C08437B1F42ED02DD0F82E2BD052
:107F50003CD0F601EF2C8F010F5F1F4F84911BD097
:107F6000EA94F801C1F70894C11CD11CFA94CF0C13
:107F7000D11C0EC0853739F428D08EE10CD085E9AC
:107F80000AD08FE07ACF813511F488E018D01DD067
:107F900080E101D065CF982F8091C00085FFFCCF94
:107FA0009093C60008958091C00087FFFCCF809118
:107FB000C00084FD01C0A8958091C6000895E0E648
:107FC000F0E098E1908380830895EDDF803219F02E
:107FD00088E0F5DFFFCF84E1DECF1F93182FE3DFCA
:107FE0001150E9F7F2DF1F91089580E0E8DFEE27F6
:047FF000FF270994CA
:027FFE00040479
:00000001FF
